{
  "_format": "hh-sol-artifact-1",
  "contractName": "SuperMeme",
  "sourceName": "contracts/SuperMeme.sol",
  "abi": [
    {
      "inputs": [],
      "stateMutability": "nonpayable",
      "type": "constructor"
    },
    {
      "anonymous": false,
      "inputs": [
        {
          "indexed": true,
          "internalType": "address",
          "name": "owner",
          "type": "address"
        },
        {
          "indexed": true,
          "internalType": "address",
          "name": "approved",
          "type": "address"
        },
        {
          "indexed": true,
          "internalType": "uint256",
          "name": "tokenId",
          "type": "uint256"
        }
      ],
      "name": "Approval",
      "type": "event"
    },
    {
      "anonymous": false,
      "inputs": [
        {
          "indexed": true,
          "internalType": "address",
          "name": "owner",
          "type": "address"
        },
        {
          "indexed": true,
          "internalType": "address",
          "name": "operator",
          "type": "address"
        },
        {
          "indexed": false,
          "internalType": "bool",
          "name": "approved",
          "type": "bool"
        }
      ],
      "name": "ApprovalForAll",
      "type": "event"
    },
    {
      "anonymous": false,
      "inputs": [
        {
          "indexed": false,
          "internalType": "uint256",
          "name": "_fromTokenId",
          "type": "uint256"
        },
        {
          "indexed": false,
          "internalType": "uint256",
          "name": "_toTokenId",
          "type": "uint256"
        }
      ],
      "name": "BatchMetadataUpdate",
      "type": "event"
    },
    {
      "anonymous": false,
      "inputs": [
        {
          "indexed": false,
          "internalType": "uint256",
          "name": "_tokenId",
          "type": "uint256"
        }
      ],
      "name": "MetadataUpdate",
      "type": "event"
    },
    {
      "anonymous": false,
      "inputs": [
        {
          "indexed": true,
          "internalType": "address",
          "name": "previousOwner",
          "type": "address"
        },
        {
          "indexed": true,
          "internalType": "address",
          "name": "newOwner",
          "type": "address"
        }
      ],
      "name": "OwnershipTransferred",
      "type": "event"
    },
    {
      "anonymous": false,
      "inputs": [
        {
          "indexed": false,
          "internalType": "address",
          "name": "account",
          "type": "address"
        }
      ],
      "name": "Paused",
      "type": "event"
    },
    {
      "anonymous": false,
      "inputs": [
        {
          "indexed": true,
          "internalType": "address",
          "name": "from",
          "type": "address"
        },
        {
          "indexed": true,
          "internalType": "address",
          "name": "to",
          "type": "address"
        },
        {
          "indexed": true,
          "internalType": "uint256",
          "name": "tokenId",
          "type": "uint256"
        }
      ],
      "name": "Transfer",
      "type": "event"
    },
    {
      "anonymous": false,
      "inputs": [
        {
          "indexed": false,
          "internalType": "address",
          "name": "account",
          "type": "address"
        }
      ],
      "name": "Unpaused",
      "type": "event"
    },
    {
      "inputs": [
        {
          "internalType": "address",
          "name": "to",
          "type": "address"
        },
        {
          "internalType": "uint256",
          "name": "tokenId",
          "type": "uint256"
        }
      ],
      "name": "approve",
      "outputs": [],
      "stateMutability": "nonpayable",
      "type": "function"
    },
    {
      "inputs": [
        {
          "internalType": "address",
          "name": "owner",
          "type": "address"
        }
      ],
      "name": "balanceOf",
      "outputs": [
        {
          "internalType": "uint256",
          "name": "",
          "type": "uint256"
        }
      ],
      "stateMutability": "view",
      "type": "function"
    },
    {
      "inputs": [
        {
          "internalType": "uint256",
          "name": "tokenId",
          "type": "uint256"
        }
      ],
      "name": "getApproved",
      "outputs": [
        {
          "internalType": "address",
          "name": "",
          "type": "address"
        }
      ],
      "stateMutability": "view",
      "type": "function"
    },
    {
      "inputs": [
        {
          "internalType": "address",
          "name": "owner",
          "type": "address"
        },
        {
          "internalType": "address",
          "name": "operator",
          "type": "address"
        }
      ],
      "name": "isApprovedForAll",
      "outputs": [
        {
          "internalType": "bool",
          "name": "",
          "type": "bool"
        }
      ],
      "stateMutability": "view",
      "type": "function"
    },
    {
      "inputs": [],
      "name": "name",
      "outputs": [
        {
          "internalType": "string",
          "name": "",
          "type": "string"
        }
      ],
      "stateMutability": "view",
      "type": "function"
    },
    {
      "inputs": [],
      "name": "owner",
      "outputs": [
        {
          "internalType": "address",
          "name": "",
          "type": "address"
        }
      ],
      "stateMutability": "view",
      "type": "function"
    },
    {
      "inputs": [
        {
          "internalType": "uint256",
          "name": "tokenId",
          "type": "uint256"
        }
      ],
      "name": "ownerOf",
      "outputs": [
        {
          "internalType": "address",
          "name": "",
          "type": "address"
        }
      ],
      "stateMutability": "view",
      "type": "function"
    },
    {
      "inputs": [],
      "name": "pause",
      "outputs": [],
      "stateMutability": "nonpayable",
      "type": "function"
    },
    {
      "inputs": [],
      "name": "paused",
      "outputs": [
        {
          "internalType": "bool",
          "name": "",
          "type": "bool"
        }
      ],
      "stateMutability": "view",
      "type": "function"
    },
    {
      "inputs": [],
      "name": "renounceOwnership",
      "outputs": [],
      "stateMutability": "nonpayable",
      "type": "function"
    },
    {
      "inputs": [
        {
          "internalType": "address",
          "name": "to",
          "type": "address"
        },
        {
          "internalType": "string",
          "name": "uri",
          "type": "string"
        }
      ],
      "name": "safeMint",
      "outputs": [],
      "stateMutability": "nonpayable",
      "type": "function"
    },
    {
      "inputs": [
        {
          "internalType": "address",
          "name": "from",
          "type": "address"
        },
        {
          "internalType": "address",
          "name": "to",
          "type": "address"
        },
        {
          "internalType": "uint256",
          "name": "tokenId",
          "type": "uint256"
        }
      ],
      "name": "safeTransferFrom",
      "outputs": [],
      "stateMutability": "nonpayable",
      "type": "function"
    },
    {
      "inputs": [
        {
          "internalType": "address",
          "name": "from",
          "type": "address"
        },
        {
          "internalType": "address",
          "name": "to",
          "type": "address"
        },
        {
          "internalType": "uint256",
          "name": "tokenId",
          "type": "uint256"
        },
        {
          "internalType": "bytes",
          "name": "data",
          "type": "bytes"
        }
      ],
      "name": "safeTransferFrom",
      "outputs": [],
      "stateMutability": "nonpayable",
      "type": "function"
    },
    {
      "inputs": [
        {
          "internalType": "address",
          "name": "operator",
          "type": "address"
        },
        {
          "internalType": "bool",
          "name": "approved",
          "type": "bool"
        }
      ],
      "name": "setApprovalForAll",
      "outputs": [],
      "stateMutability": "nonpayable",
      "type": "function"
    },
    {
      "inputs": [
        {
          "internalType": "bytes4",
          "name": "interfaceId",
          "type": "bytes4"
        }
      ],
      "name": "supportsInterface",
      "outputs": [
        {
          "internalType": "bool",
          "name": "",
          "type": "bool"
        }
      ],
      "stateMutability": "view",
      "type": "function"
    },
    {
      "inputs": [],
      "name": "symbol",
      "outputs": [
        {
          "internalType": "string",
          "name": "",
          "type": "string"
        }
      ],
      "stateMutability": "view",
      "type": "function"
    },
    {
      "inputs": [
        {
          "internalType": "uint256",
          "name": "index",
          "type": "uint256"
        }
      ],
      "name": "tokenByIndex",
      "outputs": [
        {
          "internalType": "uint256",
          "name": "",
          "type": "uint256"
        }
      ],
      "stateMutability": "view",
      "type": "function"
    },
    {
      "inputs": [
        {
          "internalType": "address",
          "name": "owner",
          "type": "address"
        },
        {
          "internalType": "uint256",
          "name": "index",
          "type": "uint256"
        }
      ],
      "name": "tokenOfOwnerByIndex",
      "outputs": [
        {
          "internalType": "uint256",
          "name": "",
          "type": "uint256"
        }
      ],
      "stateMutability": "view",
      "type": "function"
    },
    {
      "inputs": [
        {
          "internalType": "uint256",
          "name": "tokenId",
          "type": "uint256"
        }
      ],
      "name": "tokenURI",
      "outputs": [
        {
          "internalType": "string",
          "name": "",
          "type": "string"
        }
      ],
      "stateMutability": "view",
      "type": "function"
    },
    {
      "inputs": [],
      "name": "totalSupply",
      "outputs": [
        {
          "internalType": "uint256",
          "name": "",
          "type": "uint256"
        }
      ],
      "stateMutability": "view",
      "type": "function"
    },
    {
      "inputs": [
        {
          "internalType": "address",
          "name": "from",
          "type": "address"
        },
        {
          "internalType": "address",
          "name": "to",
          "type": "address"
        },
        {
          "internalType": "uint256",
          "name": "tokenId",
          "type": "uint256"
        }
      ],
      "name": "transferFrom",
      "outputs": [],
      "stateMutability": "nonpayable",
      "type": "function"
    },
    {
      "inputs": [
        {
          "internalType": "address",
          "name": "newOwner",
          "type": "address"
        }
      ],
      "name": "transferOwnership",
      "outputs": [],
      "stateMutability": "nonpayable",
      "type": "function"
    },
    {
      "inputs": [],
      "name": "unpause",
      "outputs": [],
      "stateMutability": "nonpayable",
      "type": "function"
    }
  ],
  "bytecode": "0x60806040523480156200001157600080fd5b506040518060400160405280600981526020017f53757065724d656d6500000000000000000000000000000000000000000000008152506040518060400160405280600381526020017f4d544b0000000000000000000000000000000000000000000000000000000000815250816000908051906020019062000096929190620001c1565b508060019080519060200190620000af929190620001c1565b5050506000600b60006101000a81548160ff021916908315150217905550620000ed620000e1620000f360201b60201c565b620000fb60201b60201c565b620002d6565b600033905090565b6000600b60019054906101000a900473ffffffffffffffffffffffffffffffffffffffff16905081600b60016101000a81548173ffffffffffffffffffffffffffffffffffffffff021916908373ffffffffffffffffffffffffffffffffffffffff1602179055508173ffffffffffffffffffffffffffffffffffffffff168173ffffffffffffffffffffffffffffffffffffffff167f8be0079c531659141344cd1fd0a4f28419497f9722a3daafe3b4186f6b6457e060405160405180910390a35050565b828054620001cf90620002a0565b90600052602060002090601f016020900481019282620001f357600085556200023f565b82601f106200020e57805160ff19168380011785556200023f565b828001600101855582156200023f579182015b828111156200023e57825182559160200191906001019062000221565b5b5090506200024e919062000252565b5090565b5b808211156200026d57600081600090555060010162000253565b5090565b7f4e487b7100000000000000000000000000000000000000000000000000000000600052602260045260246000fd5b60006002820490506001821680620002b957607f821691505b60208210811415620002d057620002cf62000271565b5b50919050565b61391480620002e66000396000f3fe608060405234801561001057600080fd5b506004361061014d5760003560e01c80636352211e116100c3578063a22cb4651161007c578063a22cb4651461037a578063b88d4fde14610396578063c87b56dd146103b2578063d204c45e146103e2578063e985e9c5146103fe578063f2fde38b1461042e5761014d565b80636352211e146102ca57806370a08231146102fa578063715018a61461032a5780638456cb59146103345780638da5cb5b1461033e57806395d89b411461035c5761014d565b806323b872dd1161011557806323b872dd1461020a5780632f745c59146102265780633f4ba83a1461025657806342842e0e146102605780634f6ccce71461027c5780635c975abb146102ac5761014d565b806301ffc9a71461015257806306fdde0314610182578063081812fc146101a0578063095ea7b3146101d057806318160ddd146101ec575b600080fd5b61016c6004803603810190610167919061262a565b61044a565b6040516101799190612672565b60405180910390f35b61018a61045c565b6040516101979190612726565b60405180910390f35b6101ba60048036038101906101b5919061277e565b6104ee565b6040516101c791906127ec565b60405180910390f35b6101ea60048036038101906101e59190612833565b610534565b005b6101f461064c565b6040516102019190612882565b60405180910390f35b610224600480360381019061021f919061289d565b610659565b005b610240600480360381019061023b9190612833565b6106b9565b60405161024d9190612882565b60405180910390f35b61025e61075e565b005b61027a6004803603810190610275919061289d565b610770565b005b6102966004803603810190610291919061277e565b610790565b6040516102a39190612882565b60405180910390f35b6102b4610801565b6040516102c19190612672565b60405180910390f35b6102e460048036038101906102df919061277e565b610818565b6040516102f191906127ec565b60405180910390f35b610314600480360381019061030f91906128f0565b61089f565b6040516103219190612882565b60405180910390f35b610332610957565b005b61033c61096b565b005b61034661097d565b60405161035391906127ec565b60405180910390f35b6103646109a7565b6040516103719190612726565b60405180910390f35b610394600480360381019061038f9190612949565b610a39565b005b6103b060048036038101906103ab9190612abe565b610a4f565b005b6103cc60048036038101906103c7919061277e565b610ab1565b6040516103d99190612726565b60405180910390f35b6103fc60048036038101906103f79190612be2565b610ac3565b005b61041860048036038101906104139190612c3e565b610af4565b6040516104259190612672565b60405180910390f35b610448600480360381019061044391906128f0565b610b88565b005b600061045582610c0c565b9050919050565b60606000805461046b90612cad565b80601f016020809104026020016040519081016040528092919081815260200182805461049790612cad565b80156104e45780601f106104b9576101008083540402835291602001916104e4565b820191906000526020600020905b8154815290600101906020018083116104c757829003601f168201915b5050505050905090565b60006104f982610c6d565b6004600083815260200190815260200160002060009054906101000a900473ffffffffffffffffffffffffffffffffffffffff169050919050565b600061053f82610818565b90508073ffffffffffffffffffffffffffffffffffffffff168373ffffffffffffffffffffffffffffffffffffffff1614156105b0576040517f08c379a00000000000000000000000000000000000000000000000000000000081526004016105a790612d51565b60405180910390fd5b8073ffffffffffffffffffffffffffffffffffffffff166105cf610cb8565b73ffffffffffffffffffffffffffffffffffffffff1614806105fe57506105fd816105f8610cb8565b610af4565b5b61063d576040517f08c379a000000000000000000000000000000000000000000000000000000000815260040161063490612de3565b60405180910390fd5b6106478383610cc0565b505050565b6000600880549050905090565b61066a610664610cb8565b82610d79565b6106a9576040517f08c379a00000000000000000000000000000000000000000000000000000000081526004016106a090612e75565b60405180910390fd5b6106b4838383610e0e565b505050565b60006106c48361089f565b8210610705576040517f08c379a00000000000000000000000000000000000000000000000000000000081526004016106fc90612f07565b60405180910390fd5b600660008473ffffffffffffffffffffffffffffffffffffffff1673ffffffffffffffffffffffffffffffffffffffff168152602001908152602001600020600083815260200190815260200160002054905092915050565b610766611108565b61076e611186565b565b61078b83838360405180602001604052806000815250610a4f565b505050565b600061079a61064c565b82106107db576040517f08c379a00000000000000000000000000000000000000000000000000000000081526004016107d290612f99565b60405180910390fd5b600882815481106107ef576107ee612fb9565b5b90600052602060002001549050919050565b6000600b60009054906101000a900460ff16905090565b600080610824836111e9565b9050600073ffffffffffffffffffffffffffffffffffffffff168173ffffffffffffffffffffffffffffffffffffffff161415610896576040517f08c379a000000000000000000000000000000000000000000000000000000000815260040161088d90613034565b60405180910390fd5b80915050919050565b60008073ffffffffffffffffffffffffffffffffffffffff168273ffffffffffffffffffffffffffffffffffffffff161415610910576040517f08c379a0000000000000000000000000000000000000000000000000000000008152600401610907906130c6565b60405180910390fd5b600360008373ffffffffffffffffffffffffffffffffffffffff1673ffffffffffffffffffffffffffffffffffffffff168152602001908152602001600020549050919050565b61095f611108565b6109696000611226565b565b610973611108565b61097b6112ec565b565b6000600b60019054906101000a900473ffffffffffffffffffffffffffffffffffffffff16905090565b6060600180546109b690612cad565b80601f01602080910402602001604051908101604052809291908181526020018280546109e290612cad565b8015610a2f5780601f10610a0457610100808354040283529160200191610a2f565b820191906000526020600020905b815481529060010190602001808311610a1257829003601f168201915b5050505050905090565b610a4b610a44610cb8565b838361134f565b5050565b610a60610a5a610cb8565b83610d79565b610a9f576040517f08c379a0000000000000000000000000000000000000000000000000000000008152600401610a9690612e75565b60405180910390fd5b610aab848484846114bc565b50505050565b6060610abc82611518565b9050919050565b6000610acf600c61162b565b9050610adb600c611639565b610ae5838261164f565b610aef818361166d565b505050565b6000600560008473ffffffffffffffffffffffffffffffffffffffff1673ffffffffffffffffffffffffffffffffffffffff16815260200190815260200160002060008373ffffffffffffffffffffffffffffffffffffffff1673ffffffffffffffffffffffffffffffffffffffff16815260200190815260200160002060009054906101000a900460ff16905092915050565b610b90611108565b600073ffffffffffffffffffffffffffffffffffffffff168173ffffffffffffffffffffffffffffffffffffffff161415610c00576040517f08c379a0000000000000000000000000000000000000000000000000000000008152600401610bf790613158565b60405180910390fd5b610c0981611226565b50565b6000634906490660e01b7bffffffffffffffffffffffffffffffffffffffffffffffffffffffff1916827bffffffffffffffffffffffffffffffffffffffffffffffffffffffff19161480610c665750610c6582611718565b5b9050919050565b610c7681611792565b610cb5576040517f08c379a0000000000000000000000000000000000000000000000000000000008152600401610cac90613034565b60405180910390fd5b50565b600033905090565b816004600083815260200190815260200160002060006101000a81548173ffffffffffffffffffffffffffffffffffffffff021916908373ffffffffffffffffffffffffffffffffffffffff160217905550808273ffffffffffffffffffffffffffffffffffffffff16610d3383610818565b73ffffffffffffffffffffffffffffffffffffffff167f8c5be1e5ebec7d5bd14f71427d1e84f3dd0314c0f7b2291e5b200ac8c7c3b92560405160405180910390a45050565b600080610d8583610818565b90508073ffffffffffffffffffffffffffffffffffffffff168473ffffffffffffffffffffffffffffffffffffffff161480610dc75750610dc68185610af4565b5b80610e0557508373ffffffffffffffffffffffffffffffffffffffff16610ded846104ee565b73ffffffffffffffffffffffffffffffffffffffff16145b91505092915050565b8273ffffffffffffffffffffffffffffffffffffffff16610e2e82610818565b73ffffffffffffffffffffffffffffffffffffffff1614610e84576040517f08c379a0000000000000000000000000000000000000000000000000000000008152600401610e7b906131ea565b60405180910390fd5b600073ffffffffffffffffffffffffffffffffffffffff168273ffffffffffffffffffffffffffffffffffffffff161415610ef4576040517f08c379a0000000000000000000000000000000000000000000000000000000008152600401610eeb9061327c565b60405180910390fd5b610f0183838360016117d3565b8273ffffffffffffffffffffffffffffffffffffffff16610f2182610818565b73ffffffffffffffffffffffffffffffffffffffff1614610f77576040517f08c379a0000000000000000000000000000000000000000000000000000000008152600401610f6e906131ea565b60405180910390fd5b6004600082815260200190815260200160002060006101000a81549073ffffffffffffffffffffffffffffffffffffffff02191690556001600360008573ffffffffffffffffffffffffffffffffffffffff1673ffffffffffffffffffffffffffffffffffffffff168152602001908152602001600020600082825403925050819055506001600360008473ffffffffffffffffffffffffffffffffffffffff1673ffffffffffffffffffffffffffffffffffffffff16815260200190815260200160002060008282540192505081905550816002600083815260200190815260200160002060006101000a81548173ffffffffffffffffffffffffffffffffffffffff021916908373ffffffffffffffffffffffffffffffffffffffff160217905550808273ffffffffffffffffffffffffffffffffffffffff168473ffffffffffffffffffffffffffffffffffffffff167fddf252ad1be2c89b69c2b068fc378daa952ba7f163c4a11628f55a4df523b3ef60405160405180910390a461110383838360016117ed565b505050565b611110610cb8565b73ffffffffffffffffffffffffffffffffffffffff1661112e61097d565b73ffffffffffffffffffffffffffffffffffffffff1614611184576040517f08c379a000000000000000000000000000000000000000000000000000000000815260040161117b906132e8565b60405180910390fd5b565b61118e6117f3565b6000600b60006101000a81548160ff0219169083151502179055507f5db9ee0a495bf2e6ff9c91a7834c1ba4fdd244a5e8aa4e537bd38aeae4b073aa6111d2610cb8565b6040516111df91906127ec565b60405180910390a1565b60006002600083815260200190815260200160002060009054906101000a900473ffffffffffffffffffffffffffffffffffffffff169050919050565b6000600b60019054906101000a900473ffffffffffffffffffffffffffffffffffffffff16905081600b60016101000a81548173ffffffffffffffffffffffffffffffffffffffff021916908373ffffffffffffffffffffffffffffffffffffffff1602179055508173ffffffffffffffffffffffffffffffffffffffff168173ffffffffffffffffffffffffffffffffffffffff167f8be0079c531659141344cd1fd0a4f28419497f9722a3daafe3b4186f6b6457e060405160405180910390a35050565b6112f461183c565b6001600b60006101000a81548160ff0219169083151502179055507f62e78cea01bee320cd4e420270b5ea74000d11b0c9f74754ebdbfc544b05a258611338610cb8565b60405161134591906127ec565b60405180910390a1565b8173ffffffffffffffffffffffffffffffffffffffff168373ffffffffffffffffffffffffffffffffffffffff1614156113be576040517f08c379a00000000000000000000000000000000000000000000000000000000081526004016113b590613354565b60405180910390fd5b80600560008573ffffffffffffffffffffffffffffffffffffffff1673ffffffffffffffffffffffffffffffffffffffff16815260200190815260200160002060008473ffffffffffffffffffffffffffffffffffffffff1673ffffffffffffffffffffffffffffffffffffffff16815260200190815260200160002060006101000a81548160ff0219169083151502179055508173ffffffffffffffffffffffffffffffffffffffff168373ffffffffffffffffffffffffffffffffffffffff167f17307eab39ab6107e8899845ad3d59bd9653f200f220920489ca2b5937696c31836040516114af9190612672565b60405180910390a3505050565b6114c7848484610e0e565b6114d384848484611886565b611512576040517f08c379a0000000000000000000000000000000000000000000000000000000008152600401611509906133e6565b60405180910390fd5b50505050565b606061152382610c6d565b6000600a6000848152602001908152602001600020805461154390612cad565b80601f016020809104026020016040519081016040528092919081815260200182805461156f90612cad565b80156115bc5780601f10611591576101008083540402835291602001916115bc565b820191906000526020600020905b81548152906001019060200180831161159f57829003601f168201915b5050505050905060006115cd611a1d565b90506000815114156115e3578192505050611626565b600082511115611618578082604051602001611600929190613442565b60405160208183030381529060405292505050611626565b61162184611a34565b925050505b919050565b600081600001549050919050565b6001816000016000828254019250508190555050565b611669828260405180602001604052806000815250611a9c565b5050565b61167682611792565b6116b5576040517f08c379a00000000000000000000000000000000000000000000000000000000081526004016116ac906134d8565b60405180910390fd5b80600a600084815260200190815260200160002090805190602001906116dc92919061251b565b507ff8e1a15aba9398e019f0b49df1a4fde98ee17ae345cb5f6b5e2c27f5033e8ce78260405161170c9190612882565b60405180910390a15050565b60007f780e9d63000000000000000000000000000000000000000000000000000000007bffffffffffffffffffffffffffffffffffffffffffffffffffffffff1916827bffffffffffffffffffffffffffffffffffffffffffffffffffffffff1916148061178b575061178a82611af7565b5b9050919050565b60008073ffffffffffffffffffffffffffffffffffffffff166117b4836111e9565b73ffffffffffffffffffffffffffffffffffffffff1614159050919050565b6117db61183c565b6117e784848484611bd9565b50505050565b50505050565b6117fb610801565b61183a576040517f08c379a000000000000000000000000000000000000000000000000000000000815260040161183190613544565b60405180910390fd5b565b611844610801565b15611884576040517f08c379a000000000000000000000000000000000000000000000000000000000815260040161187b906135b0565b60405180910390fd5b565b60006118a78473ffffffffffffffffffffffffffffffffffffffff16611d39565b15611a10578373ffffffffffffffffffffffffffffffffffffffff1663150b7a026118d0610cb8565b8786866040518563ffffffff1660e01b81526004016118f29493929190613625565b602060405180830381600087803b15801561190c57600080fd5b505af192505050801561193d57506040513d601f19601f8201168201806040525081019061193a9190613686565b60015b6119c0573d806000811461196d576040519150601f19603f3d011682016040523d82523d6000602084013e611972565b606091505b506000815114156119b8576040517f08c379a00000000000000000000000000000000000000000000000000000000081526004016119af906133e6565b60405180910390fd5b805181602001fd5b63150b7a0260e01b7bffffffffffffffffffffffffffffffffffffffffffffffffffffffff1916817bffffffffffffffffffffffffffffffffffffffffffffffffffffffff191614915050611a15565b600190505b949350505050565b606060405180602001604052806000815250905090565b6060611a3f82610c6d565b6000611a49611a1d565b90506000815111611a695760405180602001604052806000815250611a94565b80611a7384611d5c565b604051602001611a84929190613442565b6040516020818303038152906040525b915050919050565b611aa68383611e34565b611ab36000848484611886565b611af2576040517f08c379a0000000000000000000000000000000000000000000000000000000008152600401611ae9906133e6565b60405180910390fd5b505050565b60007f80ac58cd000000000000000000000000000000000000000000000000000000007bffffffffffffffffffffffffffffffffffffffffffffffffffffffff1916827bffffffffffffffffffffffffffffffffffffffffffffffffffffffff19161480611bc257507f5b5e139f000000000000000000000000000000000000000000000000000000007bffffffffffffffffffffffffffffffffffffffffffffffffffffffff1916827bffffffffffffffffffffffffffffffffffffffffffffffffffffffff1916145b80611bd25750611bd182612052565b5b9050919050565b611be5848484846120bc565b6001811115611c29576040517f08c379a0000000000000000000000000000000000000000000000000000000008152600401611c2090613725565b60405180910390fd5b6000829050600073ffffffffffffffffffffffffffffffffffffffff168573ffffffffffffffffffffffffffffffffffffffff161415611c7157611c6c816120c2565b611cb0565b8373ffffffffffffffffffffffffffffffffffffffff168573ffffffffffffffffffffffffffffffffffffffff1614611caf57611cae858261210b565b5b5b600073ffffffffffffffffffffffffffffffffffffffff168473ffffffffffffffffffffffffffffffffffffffff161415611cf357611cee81612278565b611d32565b8473ffffffffffffffffffffffffffffffffffffffff168473ffffffffffffffffffffffffffffffffffffffff1614611d3157611d308482612349565b5b5b5050505050565b6000808273ffffffffffffffffffffffffffffffffffffffff163b119050919050565b606060006001611d6b846123c8565b01905060008167ffffffffffffffff811115611d8a57611d89612993565b5b6040519080825280601f01601f191660200182016040528015611dbc5781602001600182028036833780820191505090505b509050600082602001820190505b600115611e29578080600190039150507f3031323334353637383961626364656600000000000000000000000000000000600a86061a8153600a8581611e1357611e12613745565b5b0494506000851415611e2457611e29565b611dca565b819350505050919050565b600073ffffffffffffffffffffffffffffffffffffffff168273ffffffffffffffffffffffffffffffffffffffff161415611ea4576040517f08c379a0000000000000000000000000000000000000000000000000000000008152600401611e9b906137c0565b60405180910390fd5b611ead81611792565b15611eed576040517f08c379a0000000000000000000000000000000000000000000000000000000008152600401611ee49061382c565b60405180910390fd5b611efb6000838360016117d3565b611f0481611792565b15611f44576040517f08c379a0000000000000000000000000000000000000000000000000000000008152600401611f3b9061382c565b60405180910390fd5b6001600360008473ffffffffffffffffffffffffffffffffffffffff1673ffffffffffffffffffffffffffffffffffffffff16815260200190815260200160002060008282540192505081905550816002600083815260200190815260200160002060006101000a81548173ffffffffffffffffffffffffffffffffffffffff021916908373ffffffffffffffffffffffffffffffffffffffff160217905550808273ffffffffffffffffffffffffffffffffffffffff16600073ffffffffffffffffffffffffffffffffffffffff167fddf252ad1be2c89b69c2b068fc378daa952ba7f163c4a11628f55a4df523b3ef60405160405180910390a461204e6000838360016117ed565b5050565b60007f01ffc9a7000000000000000000000000000000000000000000000000000000007bffffffffffffffffffffffffffffffffffffffffffffffffffffffff1916827bffffffffffffffffffffffffffffffffffffffffffffffffffffffff1916149050919050565b50505050565b6008805490506009600083815260200190815260200160002081905550600881908060018154018082558091505060019003906000526020600020016000909190919091505550565b600060016121188461089f565b612122919061387b565b9050600060076000848152602001908152602001600020549050818114612207576000600660008673ffffffffffffffffffffffffffffffffffffffff1673ffffffffffffffffffffffffffffffffffffffff168152602001908152602001600020600084815260200190815260200160002054905080600660008773ffffffffffffffffffffffffffffffffffffffff1673ffffffffffffffffffffffffffffffffffffffff168152602001908152602001600020600084815260200190815260200160002081905550816007600083815260200190815260200160002081905550505b6007600084815260200190815260200160002060009055600660008573ffffffffffffffffffffffffffffffffffffffff1673ffffffffffffffffffffffffffffffffffffffff16815260200190815260200160002060008381526020019081526020016000206000905550505050565b6000600160088054905061228c919061387b565b90506000600960008481526020019081526020016000205490506000600883815481106122bc576122bb612fb9565b5b9060005260206000200154905080600883815481106122de576122dd612fb9565b5b90600052602060002001819055508160096000838152602001908152602001600020819055506009600085815260200190815260200160002060009055600880548061232d5761232c6138af565b5b6001900381819060005260206000200160009055905550505050565b60006123548361089f565b905081600660008573ffffffffffffffffffffffffffffffffffffffff1673ffffffffffffffffffffffffffffffffffffffff168152602001908152602001600020600083815260200190815260200160002081905550806007600084815260200190815260200160002081905550505050565b600080600090507a184f03e93ff9f4daa797ed6e38ed64bf6a1f0100000000000000008310612426577a184f03e93ff9f4daa797ed6e38ed64bf6a1f010000000000000000838161241c5761241b613745565b5b0492506040810190505b6d04ee2d6d415b85acef81000000008310612463576d04ee2d6d415b85acef8100000000838161245957612458613745565b5b0492506020810190505b662386f26fc10000831061249257662386f26fc10000838161248857612487613745565b5b0492506010810190505b6305f5e10083106124bb576305f5e10083816124b1576124b0613745565b5b0492506008810190505b61271083106124e05761271083816124d6576124d5613745565b5b0492506004810190505b6064831061250357606483816124f9576124f8613745565b5b0492506002810190505b600a8310612512576001810190505b80915050919050565b82805461252790612cad565b90600052602060002090601f0160209004810192826125495760008555612590565b82601f1061256257805160ff1916838001178555612590565b82800160010185558215612590579182015b8281111561258f578251825591602001919060010190612574565b5b50905061259d91906125a1565b5090565b5b808211156125ba5760008160009055506001016125a2565b5090565b6000604051905090565b600080fd5b600080fd5b60007fffffffff0000000000000000000000000000000000000000000000000000000082169050919050565b612607816125d2565b811461261257600080fd5b50565b600081359050612624816125fe565b92915050565b6000602082840312156126405761263f6125c8565b5b600061264e84828501612615565b91505092915050565b60008115159050919050565b61266c81612657565b82525050565b60006020820190506126876000830184612663565b92915050565b600081519050919050565b600082825260208201905092915050565b60005b838110156126c75780820151818401526020810190506126ac565b838111156126d6576000848401525b50505050565b6000601f19601f8301169050919050565b60006126f88261268d565b6127028185612698565b93506127128185602086016126a9565b61271b816126dc565b840191505092915050565b6000602082019050818103600083015261274081846126ed565b905092915050565b6000819050919050565b61275b81612748565b811461276657600080fd5b50565b60008135905061277881612752565b92915050565b600060208284031215612794576127936125c8565b5b60006127a284828501612769565b91505092915050565b600073ffffffffffffffffffffffffffffffffffffffff82169050919050565b60006127d6826127ab565b9050919050565b6127e6816127cb565b82525050565b600060208201905061280160008301846127dd565b92915050565b612810816127cb565b811461281b57600080fd5b50565b60008135905061282d81612807565b92915050565b6000806040838503121561284a576128496125c8565b5b60006128588582860161281e565b925050602061286985828601612769565b9150509250929050565b61287c81612748565b82525050565b60006020820190506128976000830184612873565b92915050565b6000806000606084860312156128b6576128b56125c8565b5b60006128c48682870161281e565b93505060206128d58682870161281e565b92505060406128e686828701612769565b9150509250925092565b600060208284031215612906576129056125c8565b5b60006129148482850161281e565b91505092915050565b61292681612657565b811461293157600080fd5b50565b6000813590506129438161291d565b92915050565b600080604083850312156129605761295f6125c8565b5b600061296e8582860161281e565b925050602061297f85828601612934565b9150509250929050565b600080fd5b600080fd5b7f4e487b7100000000000000000000000000000000000000000000000000000000600052604160045260246000fd5b6129cb826126dc565b810181811067ffffffffffffffff821117156129ea576129e9612993565b5b80604052505050565b60006129fd6125be565b9050612a0982826129c2565b919050565b600067ffffffffffffffff821115612a2957612a28612993565b5b612a32826126dc565b9050602081019050919050565b82818337600083830152505050565b6000612a61612a5c84612a0e565b6129f3565b905082815260208101848484011115612a7d57612a7c61298e565b5b612a88848285612a3f565b509392505050565b600082601f830112612aa557612aa4612989565b5b8135612ab5848260208601612a4e565b91505092915050565b60008060008060808587031215612ad857612ad76125c8565b5b6000612ae68782880161281e565b9450506020612af78782880161281e565b9350506040612b0887828801612769565b925050606085013567ffffffffffffffff811115612b2957612b286125cd565b5b612b3587828801612a90565b91505092959194509250565b600067ffffffffffffffff821115612b5c57612b5b612993565b5b612b65826126dc565b9050602081019050919050565b6000612b85612b8084612b41565b6129f3565b905082815260208101848484011115612ba157612ba061298e565b5b612bac848285612a3f565b509392505050565b600082601f830112612bc957612bc8612989565b5b8135612bd9848260208601612b72565b91505092915050565b60008060408385031215612bf957612bf86125c8565b5b6000612c078582860161281e565b925050602083013567ffffffffffffffff811115612c2857612c276125cd565b5b612c3485828601612bb4565b9150509250929050565b60008060408385031215612c5557612c546125c8565b5b6000612c638582860161281e565b9250506020612c748582860161281e565b9150509250929050565b7f4e487b7100000000000000000000000000000000000000000000000000000000600052602260045260246000fd5b60006002820490506001821680612cc557607f821691505b60208210811415612cd957612cd8612c7e565b5b50919050565b7f4552433732313a20617070726f76616c20746f2063757272656e74206f776e6560008201527f7200000000000000000000000000000000000000000000000000000000000000602082015250565b6000612d3b602183612698565b9150612d4682612cdf565b604082019050919050565b60006020820190508181036000830152612d6a81612d2e565b9050919050565b7f4552433732313a20617070726f76652063616c6c6572206973206e6f7420746f60008201527f6b656e206f776e6572206f7220617070726f76656420666f7220616c6c000000602082015250565b6000612dcd603d83612698565b9150612dd882612d71565b604082019050919050565b60006020820190508181036000830152612dfc81612dc0565b9050919050565b7f4552433732313a2063616c6c6572206973206e6f7420746f6b656e206f776e6560008201527f72206f7220617070726f76656400000000000000000000000000000000000000602082015250565b6000612e5f602d83612698565b9150612e6a82612e03565b604082019050919050565b60006020820190508181036000830152612e8e81612e52565b9050919050565b7f455243373231456e756d657261626c653a206f776e657220696e646578206f7560008201527f74206f6620626f756e6473000000000000000000000000000000000000000000602082015250565b6000612ef1602b83612698565b9150612efc82612e95565b604082019050919050565b60006020820190508181036000830152612f2081612ee4565b9050919050565b7f455243373231456e756d657261626c653a20676c6f62616c20696e646578206f60008201527f7574206f6620626f756e64730000000000000000000000000000000000000000602082015250565b6000612f83602c83612698565b9150612f8e82612f27565b604082019050919050565b60006020820190508181036000830152612fb281612f76565b9050919050565b7f4e487b7100000000000000000000000000000000000000000000000000000000600052603260045260246000fd5b7f4552433732313a20696e76616c696420746f6b656e2049440000000000000000600082015250565b600061301e601883612698565b915061302982612fe8565b602082019050919050565b6000602082019050818103600083015261304d81613011565b9050919050565b7f4552433732313a2061646472657373207a65726f206973206e6f74206120766160008201527f6c6964206f776e65720000000000000000000000000000000000000000000000602082015250565b60006130b0602983612698565b91506130bb82613054565b604082019050919050565b600060208201905081810360008301526130df816130a3565b9050919050565b7f4f776e61626c653a206e6577206f776e657220697320746865207a65726f206160008201527f6464726573730000000000000000000000000000000000000000000000000000602082015250565b6000613142602683612698565b915061314d826130e6565b604082019050919050565b6000602082019050818103600083015261317181613135565b9050919050565b7f4552433732313a207472616e736665722066726f6d20696e636f72726563742060008201527f6f776e6572000000000000000000000000000000000000000000000000000000602082015250565b60006131d4602583612698565b91506131df82613178565b604082019050919050565b60006020820190508181036000830152613203816131c7565b9050919050565b7f4552433732313a207472616e7366657220746f20746865207a65726f2061646460008201527f7265737300000000000000000000000000000000000000000000000000000000602082015250565b6000613266602483612698565b91506132718261320a565b604082019050919050565b6000602082019050818103600083015261329581613259565b9050919050565b7f4f776e61626c653a2063616c6c6572206973206e6f7420746865206f776e6572600082015250565b60006132d2602083612698565b91506132dd8261329c565b602082019050919050565b60006020820190508181036000830152613301816132c5565b9050919050565b7f4552433732313a20617070726f766520746f2063616c6c657200000000000000600082015250565b600061333e601983612698565b915061334982613308565b602082019050919050565b6000602082019050818103600083015261336d81613331565b9050919050565b7f4552433732313a207472616e7366657220746f206e6f6e20455243373231526560008201527f63656976657220696d706c656d656e7465720000000000000000000000000000602082015250565b60006133d0603283612698565b91506133db82613374565b604082019050919050565b600060208201905081810360008301526133ff816133c3565b9050919050565b600081905092915050565b600061341c8261268d565b6134268185613406565b93506134368185602086016126a9565b80840191505092915050565b600061344e8285613411565b915061345a8284613411565b91508190509392505050565b7f45524337323155524953746f726167653a2055524920736574206f66206e6f6e60008201527f6578697374656e7420746f6b656e000000000000000000000000000000000000602082015250565b60006134c2602e83612698565b91506134cd82613466565b604082019050919050565b600060208201905081810360008301526134f1816134b5565b9050919050565b7f5061757361626c653a206e6f7420706175736564000000000000000000000000600082015250565b600061352e601483612698565b9150613539826134f8565b602082019050919050565b6000602082019050818103600083015261355d81613521565b9050919050565b7f5061757361626c653a2070617573656400000000000000000000000000000000600082015250565b600061359a601083612698565b91506135a582613564565b602082019050919050565b600060208201905081810360008301526135c98161358d565b9050919050565b600081519050919050565b600082825260208201905092915050565b60006135f7826135d0565b61360181856135db565b93506136118185602086016126a9565b61361a816126dc565b840191505092915050565b600060808201905061363a60008301876127dd565b61364760208301866127dd565b6136546040830185612873565b818103606083015261366681846135ec565b905095945050505050565b600081519050613680816125fe565b92915050565b60006020828403121561369c5761369b6125c8565b5b60006136aa84828501613671565b91505092915050565b7f455243373231456e756d657261626c653a20636f6e736563757469766520747260008201527f616e7366657273206e6f7420737570706f727465640000000000000000000000602082015250565b600061370f603583612698565b915061371a826136b3565b604082019050919050565b6000602082019050818103600083015261373e81613702565b9050919050565b7f4e487b7100000000000000000000000000000000000000000000000000000000600052601260045260246000fd5b7f4552433732313a206d696e7420746f20746865207a65726f2061646472657373600082015250565b60006137aa602083612698565b91506137b582613774565b602082019050919050565b600060208201905081810360008301526137d98161379d565b9050919050565b7f4552433732313a20746f6b656e20616c7265616479206d696e74656400000000600082015250565b6000613816601c83612698565b9150613821826137e0565b602082019050919050565b6000602082019050818103600083015261384581613809565b9050919050565b7f4e487b7100000000000000000000000000000000000000000000000000000000600052601160045260246000fd5b600061388682612748565b915061389183612748565b9250828210156138a4576138a361384c565b5b828203905092915050565b7f4e487b7100000000000000000000000000000000000000000000000000000000600052603160045260246000fdfea2646970667358221220f9b62ae69c43cc498e0361f005687cd2256f5487ff6996bc4995abc55dffc8d064736f6c63430008090033",
  "linkReferences": {},
  "deployedLinkReferences": {}
}